:100000000C945E000C9486000C9486000C94860080
:100010000C9486000C9486000C9486000C94860048
:100020000C9486000C9486000C9486000C94860038
:100030000C9486000C9486000C9486000C94860028
:100040000C94A6030C9486000C9474030C944E0339
:100050000C9486000C9486000C9486000C94860008
:100060000C9486000C9486000000000024002700F9
:100070002A0000000008000201000003040700003D
:10008000000000000000010204081020408001026E
:1000900004081020010204081020000000002500C0
:1000A00028002B00040404040404040402020202D5
:1000B0000202030303030303F003820611241FBE9D
:1000C000CFEFD8E0DEBFCDBF11E0A0E0B1E0E2EBC2
:1000D000F3E102C005900D92AC32B107D9F722E0EE
:1000E000ACE2B1E001C01D92A331B207E1F710E02C
:1000F000CDE5D0E004C02197FE010E949206CC35E8
:10010000D107C9F70E94A1040C94CC090C940000FB
:1001100090E0FC01EE58FF4F2491FC01EA57FF4F9D
:100120003491FC01EC55FF4FE491EE23B9F1222309
:1001300039F1233091F038F42130A9F0223001F563
:1001400084B58F7D12C0273091F02830A1F0243083
:10015000B9F4809180008F7D03C0809180008F77FB
:10016000809380000DC084B58F7784BD09C08091D5
:10017000B0008F7703C08091B0008F7D8093B00076
:10018000F0E0EE0FFF1FE656FF4FA591B4918FB739
:10019000F894EC9130953E233C938FBF0895E09105
:1001A000FC01F091FD018E179F07F0F530910102DF
:1001B000332361F0639FB0011124672F439FA00197
:1001C0001124452F239F90011124232F30910702E2
:1001D00050910402E0910202F0910302351308C02D
:1001E000DC01AA0FBB1F8A0F9B1F8E0F9F1F0AC027
:1001F000880F991F880F991F8E0F9F1FFC01E30F17
:10020000F11D108230910402FC01E30FF11D6083A7
:1002100030910502FC01E30FF11D4083309106028D
:10022000FC01E30FF11D20830895CF92DF92EF923E
:10023000FF920F931F93CF93DF936C017A018B0191
:10024000C0E0D0E0CE15DF0589F0D8016D918D01B9
:10025000D601ED91FC910190F081E02DC601099548
:10026000892B11F47E0102C02196ECCFC701DF91EA
:10027000CF911F910F91FF90EF90DF90CF90089555
:10028000FC01918D828D981761F0828DDF01A80F9E
:10029000B11D5D968C91928D9F5F9F73928F90E0C0
:1002A00008958FEF9FEF0895FC01918D828D98172F
:1002B00031F0828DE80FF11D858D90E008958FEF6C
:1002C0009FEF0895FC01918D228D892F90E0805C35
:1002D0009F4F821B91098F739927089585E591E0BF
:1002E0000E94620121E0892B09F420E0822F089509
:1002F000FC01848DDF01A80FB11DA35ABF4F2C91C3
:10030000848D90E001968F739927848FA689B78991
:100310002C93A089B1898C9180648C93938D848D6A
:10032000981306C00288F389E02D80818F7D808339
:100330000895EF92FF920F931F93CF93DF93EC01F9
:1003400081E0888F9B8D8C8D981305C0E889F98991
:10035000808185FD24C0F62E0B8D10E00F5F1F4FAE
:100360000F731127E02E8C8DE8120CC00FB607FC1E
:10037000FACFE889F989808185FFF5CFCE010E9407
:100380007801F1CF8B8DFE01E80FF11DE35AFF4F8D
:10039000F0820B8FEA89FB898081806207C0EE8939
:1003A000FF896083E889F98980818064808381E0A6
:1003B00090E0DF91CF911F910F91FF90EF90089502
:1003C000CF93DF93EC01888D8823C9F0EA89FB89FC
:1003D000808185FD05C0A889B9898C9186FD0FC0F3
:1003E0000FB607FCF5CF808185FFF2CFA889B989C8
:1003F0008C9185FFEDCFCE010E947801E7CFDF9190
:10040000CF91089580E090E0892B29F00E946E0141
:1004100081110C9400000895CF93DF9390E0FC01CC
:10042000EA57FF4F2491FC01EC55FF4F849188233C
:1004300061F190E0880F991FFC01E859FF4FC591C9
:10044000D491FC01E656FF4FA591B491611109C00A
:100450009FB7F8948881209582238883EC912E237E
:100460000BC0623061F49FB7F8943881822F809579
:1004700083238883EC912E2B2C939FBF06C08FB7CC
:10048000F894E8812E2B28838FBFDF91CF910895B8
:100490003FB7F89480912D0190912E01A0912F01EA
:1004A000B091300126B5A89B05C02F3F19F00196E9
:1004B000A11DB11D3FBFBA2FA92F982F8827820FEA
:1004C000911DA11DB11DBC01CD0142E0660F771F3A
:1004D000881F991F4A95D1F708950F931F93CF93C3
:1004E000DF93CDB7DEB729970FB6F894DEBF0FBE06
:1004F000CDBF0E944802009108021091090220918C
:100500000A0230910B02DC01CB01801B910BA20B84
:10051000B30BC297A105B10560F3F8948091FE0179
:100520009091FF019A838983E0910202F091030286
:10053000DF011196808189879091FA01E0910C0288
:10054000F0910D0280910E02992309F42EC0908142
:10055000982B98879081809589238F838F818C83B6
:1005600088E08B8358856F8149853B812C81898107
:100570009A81508347FD252F3A952083262F39F005
:10058000441F00C000006083000000C0F2CF38E0CC
:100590004D9160830000019761F7F0930D02E093A5
:1005A0000C0249873B832C8338C09081982B988715
:1005B0009081809589238F838F818E8388E08D83BE
:1005C00058856F8149853D812E8189819A8150832B
:1005D00047FD252F00C000C0208300C000C000C020
:1005E00000C000C060830000262F3A9541F0441FF0
:1005F000000000C000C000C000C000C0E8CF38E06C
:100600004D9100C0608300C0019709F7F0930D027F
:10061000E0930C0249873D832E839A8389837894E3
:100620000E944802609308027093090280930A02B4
:1006300090930B0229960FB6F894DEBF0FBECDBF84
:10064000DF91CF911F910F9108950E948F080F9312
:100650001F93CF93DF93EC0188819981009729F054
:100660002A813B812617370788F48B016F5F7F4F04
:100670000E94C507009761F0998388831B830A83D2
:100680002C813D81232B11F4FC01108281E001C0FB
:1006900080E0DF91CF911F910F9108951F920F92EB
:1006A0000FB60F9211242F933F934F935F936F9345
:1006B0007F938F939F93AF93BF93EF93FF9385E5C2
:1006C00091E00E947801FF91EF91BF91AF919F91CE
:1006D0008F917F916F915F914F913F912F910F90EB
:1006E0000FBE0F901F9018951F920F920FB60F928A
:1006F00011242F938F939F93EF93FF93E0916501C4
:10070000F09166018081E0916B01F0916C0182FDB6
:1007100012C0908180916E018F5F8F7320916F0165
:10072000821751F0E0916E01F0E0EB5AFE4F958F89
:1007300080936E0101C08081FF91EF919F918F9115
:100740002F910F900FBE0F901F9018951F920F9230
:100750000FB60F9211242F933F938F939F93AF93D4
:10076000BF938091F2019091F301A091F401B091B7
:10077000F50130912C0123E0230F2D3720F4019651
:10078000A11DB11D05C026E8230F0296A11DB11DB4
:1007900020932C018093F2019093F301A093F40134
:1007A000B093F50180912D0190912E01A0912F0120
:1007B000B09130010196A11DB11D80932D01909340
:1007C0002E01A0932F01B0933001BF91AF919F9163
:1007D0008F913F912F910F900FBE0F901F90189502
:1007E000109258011092570188EE93E0A0E0B0E01B
:1007F0008093590190935A01A0935B01B0935C01DF
:100800008EE091E0909356018093550185EC90E045
:10081000909362018093610184EC90E09093640175
:100820008093630180EC90E0909366018093650172
:1008300081EC90E0909368018093670182EC90E0F6
:1008400090936A018093690186EC90E090936C012B
:1008500080936B0110926E0110926F0110927001E3
:10086000109271011092FB01109201021092080285
:100870001092090210920A0210920B0281E08093FA
:100880000702809304021092050292E09093060200
:100890008093FA0185E190E09093FF018093FE013F
:1008A0000E9498069093030280930202009761F0E1
:1008B00025E1FC0111922A95E9F787E090E09093F9
:1008C000FD018093FC0108C01092FF011092FE010F
:1008D0001092FD011092FC0186E08093000280914D
:1008E000FB01882339F061E086E00E940C0286E07B
:1008F0000E948800EAEAF0E0E491F0E0EE0FFF1FCA
:10090000E656FF4F8591949190930D0280930C02CF
:10091000ECE8F0E0E491E0930E022FB7F8948091B8
:10092000F2019091F301A091F401B091F5012FBF74
:100930008093F6019093F701A093F801B093F90129
:100940000895CF93DF93CDB7DEB763970FB6F894D2
:10095000DEBF0FBECDBF789484B5826084BD84B500
:10096000816084BD85B5826085BD85B5816085BDAA
:1009700080916E00816080936E0010928100809162
:1009800081008260809381008091810081608093EA
:100990008100809180008160809380008091B1000F
:1009A00084608093B1008091B00081608093B0003A
:1009B00080917A00846080937A0080917A008260CE
:1009C00080937A0080917A00816080937A00809190
:1009D0007A00806880937A001092C100E0916501EE
:1009E000F091660182E08083E0916501F0916601FB
:1009F0001082E0916101F09162011082E091630147
:100A0000F091640180E1808310926D01E0916901B1
:100A1000F0916A0186E08083E0916701F0916801BE
:100A2000808180618083E0916701F091680180811D
:100A300088608083E0916701F0916801808180681F
:100A40008083E0916701F091680180818F7D8083D0
:100A500080E480937C0080917A00806480937A00A7
:100A600080917A0086FDFCCF6091780080917900BA
:100A700070E0782B072E000C880B990B611571051F
:100A80008105910511F00E94F7088091000287FD11
:100A900007C061E00E940C02809100020E94880061
:100AA00081E08093FB018091020290910302892BE7
:100AB00011F00E946D0288EE482E83E0582E612CC2
:100AC000712C8E010F5F1F4F222423949FE1392E3A
:100AD0008FB7F8948090F2019090F301A090F40108
:100AE000B090F5018FBF8091F6019091F701A09130
:100AF000F801B091F901805D9A48AF4FBF4F88155A
:100B00009905AA05BB0508F08BC0C501B401A30176
:100B100092010E949B0969017A011F861E86198A2B
:100B2000188A1B8A1A8A6EE070E0CE010E960E9427
:100B300027032E853F8581110DC02115310519F040
:100B4000C9010E942D071F861E861B8A1A8A198AD0
:100B5000188A09C08EE090E09B8B8A8B6AE171E075
:100B6000C9010E949D082AE0A801C701B6010E94A0
:100B70000009F80101900020E9F73197E01BF10B23
:100B8000EA88FB883097A1F0EE0EFF1EB701CE0178
:100B90000E960E942703882359F02E853F858A8967
:100BA0009B89B801820F931F0E949D08FB8AEA8AE5
:100BB0004A895B896E857F8585E591E00E941501F4
:100BC00042E050E069E271E085E591E00E941501A4
:100BD0008092F6019092F701A092F801B092F9018B
:100BE0008E859F850E942D071BC0211122C085E59F
:100BF00091E00E94400190913301992309F47CC057
:100C000090913201E92FF0E0EC5CFE4F8E3F09F449
:100C100069C080839F5F903208F061C09093320179
:100C200085E591E00E946201209154011816190691
:100C3000E4F2222309F450C020913401409136019E
:100C40006091350180E090E00E94CF002091370153
:100C5000409139016091380181E090E00E94CF001D
:100C600020913A0140913C0160913B0182E090E08B
:100C70000E94CF0020913D0140913F0160913E01D3
:100C800083E090E00E94CF0020914001409142011A
:100C90006091410184E090E00E94CF0020914301E7
:100CA000409145016091440185E090E00E94CF00B1
:100CB00020914601409148016091470186E090E013
:100CC0000E94CF008091020290910302892B11F0C3
:100CD0000E946D02109254010E940202F9CE3092DD
:100CE00032019ECF10821092330190933101109205
:100CF00032012092540194CF8F3F09F091CF20927E
:100D000033018ECF8091020290910302009711F07F
:100D10000E942D078091000287FD03C060E00C94C3
:100D20000C020895EE0FFF1F0590F491E02D099439
:100D3000CF93DF938230910510F482E090E0E09150
:100D40001102F091120220E030E0C0E0D0E03097D4
:100D500011F14081518148175907C0F048175907D0
:100D600061F482819381209719F09B838A832BC041
:100D7000909312028093110226C02115310519F0BB
:100D80004217530718F49A01BE01DF01EF010280F8
:100D9000F381E02DDCCF2115310509F1281B390B3A
:100DA0002430310590F412968D919C911397611522
:100DB000710521F0FB019383828304C0909312029A
:100DC00080931102FD01329644C0FD01E20FF31F32
:100DD00081939193225031092D933C933AC02091F5
:100DE0000F0230911002232B41F420910201309127
:100DF00003013093100220930F02209100013091E3
:100E000001012115310541F42DB73EB74091040190
:100E100050910501241B350BE0910F02F091100257
:100E2000E217F307A0F42E1B3F0B2817390778F0C1
:100E3000AC014E5F5F4F2417350748F04E0F5F1F20
:100E40005093100240930F028193919302C0E0E00F
:100E5000F0E0CF01DF91CF9108950F931F93CF93CF
:100E6000DF93009709F48CC0FC0132971382128241
:100E700000911102109112020115110581F42081D7
:100E80003181820F931F20910F0230911002281799
:100E9000390779F5F0931002E0930F0271C0D80181
:100EA00040E050E0AE17BF0750F412962D913C91F0
:100EB0001397AD012115310509F1D901F3CF9D013A
:100EC000DA013383228360817181860F971F821735
:100ED000930769F4EC0128813981260F371F2E5FB3
:100EE0003F4F318320838A819B8193838283452B6B
:100EF00029F4F0931202E093110242C01396FC937E
:100F0000EE931297ED01499159919E01240F351FDF
:100F1000E217F30771F480819181840F951F029687
:100F200011969C938E938281938113969C938E93BA
:100F30001297E0E0F0E0D80112968D919C91139702
:100F4000009719F0F8018C01F6CF8D919C919801D2
:100F50002E5F3F4F820F931F20910F02309110029E
:100F60002817390769F4309729F410921202109269
:100F7000110202C0138212821093100200930F021A
:100F8000DF91CF911F910F910895A0E0B0E0EBECBD
:100F9000F7E00C946809EC01009721F4CB010E9462
:100FA0009806B8C0FC01E60FF71F9C0122503109DA
:100FB000E217F30708F4ACC0D9010D911C91119709
:100FC00006171707B0F00530110508F49FC0C801D7
:100FD00004978617970708F499C002501109061B59
:100FE000170B019311936D937C93CF010E942D07F2
:100FF0008DC05B01A01AB10A4C01800E911EA09118
:101000001102B091120240E050E0E12CF12C109757
:1010100009F44AC0A815B905D1F56D907C901197D7
:10102000630182E0C80ED11CCA14DB0480F1A30165
:101030004A195B096A0182E0C80ED11C1296BC9065
:1010400012971396AC91B5E0CB16D10440F0B28262
:10105000A38351834083D9016D937C930AC00E5FB3
:101060001F4FC301800F911FF90191838083EB2DE6
:10107000FA2FE114F10431F0D7011396FC93EE93AB
:10108000129744C0F0931202E09311023FC08D9179
:101090009C9111974817590708F4AC017D011296ED
:1010A0000D90BC91A02DB3CF80910F0290911002B2
:1010B00088159905E1F446175707C8F48091000197
:1010C00090910101009741F48DB79EB740910401C2
:1010D00050910501841B950BE817F907C8F4F093AC
:1010E0001002E0930F02F901718360830FC0CB01FE
:1010F0000E9498067C01009759F0A801BE010E9449
:101100009408CE010E942D07C70104C0CE0102C081
:1011100080E090E0CDB7DEB7EEE00C94840981E08A
:1011200090E0F8940C94CC09FB01DC0102C0019022
:101130000D9241505040D8F70895FB01DC01019019
:101140000D920020E1F708958F929F92AF92BF9287
:10115000CF92DF92EF92FF92CF93DF93EC01688101
:1011600079818A819B81611571058105910521F441
:1011700064E279ED8BE597E02DE133EF41E050E05B
:101180000E94320949015A019B01AC01A7EAB1E46E
:101190000E9451096B017C01ACEEB4EFA5019401F2
:1011A0000E945F09DC01CB018C0D9D1DAE1DBF1D92
:1011B000B7FF03C00197A109B04888839983AA8328
:1011C000BB83BC01CD019F77DF91CF91FF90EF9062
:1011D000DF90CF90BF90AF909F908F9008950E9426
:1011E000A408089586E091E00E94A4080895609301
:1011F00006017093070180930801909309010895F7
:10120000BB27FA01A62F6217710581059105330BE3
:1012100030FB66F0AA27660F771F881F991FAA1F49
:10122000A21710F0A21B63953850A9F7A05DAA334E
:1012300008F0A95DA19336F7B111B1931082CA01EC
:101240000C942209DC01FC01672F71917723E1F7EF
:10125000329704C07C916D9370836291AE17BF0783
:10126000C8F30895052E97FB1EF400940E944909C7
:1012700057FD07D00E949B0907FC03D04EF40C9445
:10128000490950954095309521953F4F4F4F5F4FFD
:10129000089590958095709561957F4F8F4F9F4FE2
:1012A00008950E94BD09A59F900DB49F900DA49F25
:1012B000800D911D11240895B7FF0C9451090E94CF
:1012C0005109821B930B08952F923F924F925F9288
:1012D0006F927F928F929F92AF92BF92CF92DF9246
:1012E000EF92FF920F931F93CF93DF93CDB7DEB7AB
:1012F000CA1BDB0B0FB6F894DEBF0FBECDBF09943F
:101300002A88398848885F846E847D848C849B8495
:10131000AA84B984C884DF80EE80FD800C811B81A3
:10132000AA81B981CE0FD11D0FB6F894DEBF0FBED2
:10133000CDBFED010895A1E21A2EAA1BBB1BFD0132
:101340000DC0AA1FBB1FEE1FFF1FA217B307E407A4
:10135000F50720F0A21BB30BE40BF50B661F771FFC
:10136000881F991F1A9469F76095709580959095DC
:101370009B01AC01BD01CF010895A29FB001B39FB5
:10138000C001A39F700D811D1124911DB29F700D8E
:10139000811D1124911D089510E0CDE5D0E004C019
:1013A000FE010E9492062196CE35D107C9F7F89426
:0213B000FFCF6D
:1013B20000001302800001000000000000009901FB
:1013C2001501620140015401E00150696E672C2051
:0C13D200557074696D653A20000D0A002A
:00000001FF
